:020000040800F2
:1000000048ED001025050308D13B0108EB1C020850
:10001000D33B0108D73B0108DB3B0108000000008F
:10002000000000000000000000000000931C020817
:10003000DF3B010800000000931C02083B1C020883
:100040003F0503083F0503083F0503083F05030874
:100050003F0503083F0503083F0503083F05030864
:100060003F0503083F0503083F0503083F05030854
:100070003F0503083F0503083F0503083F05030844
:10008000213C01083F0503083F0503083F0503081D
:100090003F0503083F0503083F0503083F05030824
:1000A0003F0503083F0503083F0503083F05030814
:1000B000EB3B0108E13B01083F0503083F0503084E
:1000C0003F0503083F0503083F0503083F050308F4
:1000D0003F0503083F0503083F0503083F050308E4
:1000E0003F0503083F0503083F0503083F050308D4
:1000F0003F0503083F0503083F0503083F050308C4
:100100003F0503083F0503083F0503083F050308B3
:100110003F0503083F0503083F0503083F050308A3
:100120003F050308FD3B0108053C01083F050308A6
:100130003F0503083F0503083F0503083F05030883
:100140003F0503083F0503083F050308173C010866
:100150003F0503083F0503083F0503083F05030863
:100160003F0503083F0503083F0503083F05030853
:100170003F0503083F0503080F3C01083F0503083E
:100180003F0503083F05030800F002F800F073F88C
:100190000AA090E8000C82448344AAF10107DA45E2
:1001A00001D100F068F8AFF2090EBAE80F0013F0C1
:1001B000010F18BFFB1A43F001031847B4A805004C
:1001C000F4A805000A444FF0000C10F8013B13F0AE
:1001D000070408BF10F8014B1D1108BF10F8015BA0
:1001E000641E05D010F8016B641E01F8016BF9D193
:1001F00013F0080F1EBF10F8014BAD1C0C1B09D1EA
:100200006D1E58BF01F801CBFAD505E014F8016B5B
:1002100001F8016B6D1EF9D59142D6D370470000ED
:100220000023002400250026103A28BF78C1FBD8FF
:10023000520728BF30C148BF0B607047642930F0B7
:10024000B182002070471FB539F0C6FA9DE803005F
:1002500030F018FD30F014FF04000020002132F0CF
:1002600001FB401C606030F0B7FC1FBD10B50020E2
:1002700030F0BFFD10BD30F068FF1146FFF7E3FF1F
:1002800000F00AF830F086FF03B4FFF7EFFF03BC7D
:1002900030F054FF704700BF10B5064800F071F809
:1002A000044800F0B5F8002010BD10B5014800F07A
:1002B00067F810BD0000001010B50446204630F06D
:1002C000C3F910BD10B50446204630F0ECF910BD5E
:1002D00010B504462068B0F1804F03D06949084446
:1002E00040B907E068480068401C6749086002F0B0
:1002F000DCFF00BF00BF10BD10B50446204630F043
:10030000A3F910BD10B50446204630F0CCF910BD5D
:1003100070472DE9F0410F4606AC70CC016803F040
:10032000F80C4FEA0C2C04F0FC084CEAC80C4CEA20
:10033000D50CA1F800C001F1020C6146C0F800C064
:10034000BDE8F08110B500BF504800F061F9012808
:10035000FAD010BD10B50446204630F075F910BD36
:1003600010B50446204630F09EF910BD10B548483F
:1003700015F09AF810BD10B5454815F09CF810BD61
:1003800070477FB5054613F05BFC13F05DFC13F07E
:10039000B4FC13F0D5FC13F035FD13F062FD13F03F
:1003A000FAFD13F0F0FD13F0FDFC13F083FE13F0E3
:1003B0000CFE13F027FF402136482EF0D4FC00211C
:1003C000354802F0EEFA1024344804800020334906
:1003D000E0390884A1F8A0003049203908802F496D
:1003E000E039A1F800012E480168012088472D4915
:1003F0002B4818F0B6FE00222A492B4816F002FFBF
:1004000021F0A8F98DE80F000F2002F03CFF7FBD1E
:100410001FB521F0A6F98DE80F0000BFFEE77FB5FC
:1004200082B006460A9C0025BDF81600082802D0B6
:10043000102804D101E0082503E0042501E006B0FE
:1004400070BD00BF0095224600211848039B11F0A3
:10045000B1FF08B100BFFEE700BFF0E710B50446EA
:10046000C82000F003F910BD10B50A482EF000FCBA
:10047000094802F092FA04460D4A0E4930F0CEF9CE
:1004800010BD000000FCFFBF0C0000102C0100207C
:10049000440900106806002004000010E000086015
:1004A0002CFF03080800001078060020680B0010DD
:1004B00000000008A12900082DE9F04186B0074698
:1004C0000C4615461E46DDF83080029403950496CE
:1004D000CDF8048001A9384605F0D0F806B0BDE893
:1004E000F0812DE9F04186B007460C4615461E46C0
:1004F000DDF8308012200290039404950596CDF823
:10050000048001A9384605F0B9F806B0BDE8F081CD
:100510007047012A03D183690B43836103E0836938
:1005200043EA01438361704782690A4382617047ED
:10053000826942EA01428261704742694A404261EF
:100540007047024610690840884201D10120704777
:100550000020FCE782690A4382617047826942EAAF
:1005600001428261704741617047014608697047E6
:10057000F0B585B004460D4616461F460195029615
:100580000397606800906946206805F077F805B029
:10059000F0BD2DE9F04186B004460D4616461F46D3
:1005A000DDF83080CDF808800395049605976068E3
:1005B000019001A9206805F061F806B0BDE8F0815E
:1005C0007047012906D10268926943681A4303689B
:1005D0009A6106E002689269838842EA03420368EE
:1005E0009A617047016889694268114302689161A4
:1005F000704701688969828841EA02410268916115
:10060000704701684969426851400268516170470A
:100610000146086800694A681040904201D10120F3
:1006200070470020FCE7016889694268114302684D
:10063000916170470168896942681143026891615C
:100640007047014608680069704700BF011EA0F1AD
:100650000100FBD1704700B5034602E01420FFF70C
:10066000F4FF181EA3F10103F8D100BD10B5044634
:10067000204602F023FE10BD10B5044603E04FF4FF
:100680007A70FFF7F3FF201EA4F10104F7D110BD2B
:100690007FB504460D460020039000BF19200121BC
:1006A00003AACDE900210290217B01232A462A4892
:1006B00007F077F90028F1D19DF80C0004B070BD67
:1006C0007FB504460D461646039600BF192001214A
:1006D00003AACDE900210290217B01232A461E486E
:1006E00007F007F80028F1D17FBD70B505460C462C
:1006F00021461A48FFF765FF70BD70B505460C46E8
:1007000021461748FFF75DFF70BD70B505460C46E2
:100710002046FFF7ABFF70BD38B5044600BF002090
:1007200000901048006840F480700E490860084648
:10073000006800F48070009000BF00BF0023022218
:1007400001210748FFF714FF00230222012103487B
:10075000FFF70EFF38BD0000DC0B00100800002082
:10076000000000203038024070B505460C46264691
:100770003146284600F056F970BD70B505460C4666
:1007800044F480763146284600F04CF970BD10B52F
:1007900004460121204600F05EF90121204600F0C8
:1007A0005DF90021204600F056F91E21204600F098
:1007B00055F90121204600F04EF91E21204600F097
:1007C0004DF910BD00BF0A1EA1F10101FBD1704718
:1007D000704710B50446204600F047F92046FFF761
:1007E000D6FF01212046FFF7BFFF0F21204600F072
:1007F00035F9C0212046FFF7B7FF15212046FFF746
:10080000BCFF12212046FFF7B8FFC1212046FFF7A9
:10081000ABFF41212046FFF7B0FFC5212046FFF77F
:10082000A3FF00212046FFF7A8FF4A212046FFF73B
:10083000A4FF80212046FFF7A0FF36212046FFF7C6
:1008400093FF48212046FFF798FF3A212046FFF703
:100850008BFF60212046FFF790FFB0212046FFF775
:1008600083FF02212046FFF788FFB4212046FFF7CF
:100870007BFF00212046FFF780FFB6212046FFF7CF
:1008800073FF20212046FFF778FF0F212046FFF756
:1008900074FFE9212046FFF767FF00212046FFF79C
:1008A0006CFFF7212046FFF75FFFA9212046FFF7E5
:1008B00064FF52212046FFF760FF2C212046FFF7FE
:1008C0005CFF82212046FFF758FFB5212046FFF745
:1008D0004BFF04212046FFF750FF04212046FFF77D
:1008E0004CFF04212046FFF748FF04212046FFF774
:1008F00044FF51212046FFF737FF00212046FFF734
:100900003CFF80212046FFF738FF53212046FFF7A8
:100910002BFF20212046FFF730FF0F21204600F05B
:100920009DF811212046FFF71FFF0F21204600F000
:1009300095F829212046FFF717FF0F21204600F0E8
:100940008DF8002010BD2DE9FC4107460C461546E8
:100950001E46DDF82080019505EB080080B200906E
:100960002A213846FFF700FF9DF805103846FFF7AB
:1009700004FF9DF804103846FFF7FFFE9DF80110B4
:100980003846FFF7FAFE9DF800103846FFF7F5FEEF
:100990000194A01980B200902B213846FFF7E4FEA5
:1009A0009DF805103846FFF7E8FE9DF8041038461C
:1009B000FFF7E3FE9DF801103846FFF7DEFE9DF8D5
:1009C00000103846FFF7D9FE0020BDE8FC8110B5C5
:1009D000044636212046FFF7C7FE20212046FFF7B8
:1009E000CCFE10BD014605A0704770B504460D460B
:1009F0002946204600F099F870BD00005446542066
:100A0000445249564552203A20494C4939343836E7
:100A10002C203438302058203332302C20313842CA
:100A20005050000070B505460C4600BF5148807913
:100A300000F001000028F9D14E48C4800120FFF7E2
:100A40000AFE00BF4B48807900F001000028F9D170
:100A50004848008970BD474B1981704770B50546FD
:100A60000C462046FFF702FE70BD38B505464FF430
:100A700012644048848000BF002000903E48006817
:100A800040F001003C4908600846006800F00100A1
:100A9000009000BF00BF022001230322002100902C
:100AA0003648FFF776FD00BF002000903248143032
:100AB000006840F0010030491431086008460068C1
:100AC00000F00100009000BF00BF2D482D490860D4
:100AD0002D48006840082D49B0FBF1F0401E29491F
:100AE000486040F2E7312748C16000210161816020
:100AF0000DF027F808B100BFFEE760202449086028
:100B00000020886008614FF4FA70486004221D4894
:100B10000EF0A7FA08B100BFFEE7042119480DF056
:100B20004EF808B100BFFEE738BD70B504460D466B
:100B30002078A84200D170BD2570042111480DF025
:100B400065F808B100BFFEE7207800EB80004000A8
:100B50000F49486004220B480EF083FA08B100BF29
:100B6000FEE7042107480DF02AF808B100BFFEE7B0
:100B700000BFE0E7000008603038024010000020AD
:100B800000000140EC030010400600208096980011
:100B90002804001010B586B004462068B0F1A04FBC
:100BA00050D100BF00200090F848006840F00100DC
:100BB000F64908600846006800F00100009000BF98
:100BC00000BF4FF4C050019002200290002003901B
:100BD000032004900A20059001A9ED4804F04EFD81
:100BE0004FF48060019012200290012003900A20AF
:100BF000059001A9E64804F041FD00BFE348001D4F
:100C0000006840F08000E149091D086000BF002035
:100C10000090DE481430006840F48040DB49143115
:100C200008600846006800F48040009000BF00BFE4
:100C300000BF00221146432002F0DCFB432002F0FB
:100C400017FCC4E0D34920688842FAD100BF0020D5
:100C50000090CE48006840F00100CC49086008468A
:100C6000006800F00100009000BF00BF00BF00203E
:100C700000900846006840F00200086008460068DE
:100C800000F00200009000BF00BF00BF00200090F5
:100C90000846006840F0040008600846006800F05C
:100CA0000400009000BF00BF00BF00200090084675
:100CB000006840F0800008600846006800F080008E
:100CC000009000BF00BF00BF0020009008460068F1
:100CD00040F4807008600846006800F4807000905E
:100CE00000BF00BF2020019002200290002003904E
:100CF000032004900A20059001A9A54804F0BEFC39
:100D0000082001900220029000200390032004900C
:100D10000A20059001A99E4804F0B0FC43F6234048
:100D2000019002200290002003900A20059001A962
:100D3000994804F0A3FC01200190022002900020B9
:100D400003900A20059001A9944804F097FC102014
:100D5000019002200290002003900A20059001A932
:100D60008F4804F08BFC4FF4006001900220029049
:100D7000002003900A20059001A98A4804F07EFC17
:100D800000BF002000908148006840F000507F497B
:100D900008600846006800F00050009000BF00BFE7
:100DA00000BF002000900846006840F080400860C6
:100DB0000846006800F08040009000BF00BF00229D
:100DC00007214D2002F016FB4D2002F051FB06B02A
:100DD00010BD0168B1F1A04F10D16C49091D09681F
:100DE00021F08001694A121D1160684914310968B7
:100DF00021F48041654A1432116011E0654A0168AE
:100E000091420DD16149096821F000515F4A11609A
:100E10005E491431096821F480415C4A1432116042
:100E2000704710B5044604F56171D4F8B40314F0AA
:100E30006EFB10BD70B504460D46C5EBC50304F549
:100E4000EE7101EB8301CA682946D4F8B40314F0AB
:100E500095FB70BD70B504460D46C5EBC50304F1A6
:100E6000380101EB8301CA682946D4F8B40314F0B1
:100E7000C8FB70BD10B50446D4F8B40314F065FC8B
:100E800010BD70B504460125E06810B1022804D1F8
:100E900001E0002503E0012501E0012500BF00BFBE
:100EA0002946D4F8B40314F03BFCD4F8B40314F08E
:100EB00015FC70BD10B50446D4F8B40314F034FC2E
:100EC00010BD10B50446D4F8B40314F037FC10BDBF
:100ED00070B504460D462946D4F8B40314F049FC15
:100EE00070BD70B504460D462946D4F8B40314F01D
:100EF0003DFC70BD10B50446D4F8B40314F03CFCBE
:100F000010BD10B50446D4F8B40314F038FC10BD7D
:100F100010B504464FF0A040234908600420486003
:100F200000212148016340214161002101610162EA
:100F3000022181610021C1610221C1600021C162E1
:100F4000C0F8B443C4F820020AF0E9F8802116483A
:100F50000AF099FF4022002113480AF06BFF80221B
:100F6000012111480AF066FF002010BD10B50446AB
:100F7000D4F820020AF092F9002010BD10B5044602
:100F8000D4F820020AF09DF9002010BD303802404C
:100F9000000002400000044000040240000802403B
:100FA000001C0240002002404404001010B504461A
:100FB000D4F820020AF055F9002010BD2DE9F041C7
:100FC00004460F4615461E462B4632463946D4F88F
:100FD00020020AF066FD0020BDE8F08170B50446ED
:100FE0000D462946D4F820020AF0A1FD002070BD6C
:100FF00070B504460D462946D4F820020AF0D6FE04
:10100000002070BD70B504460D462946D4F8200274
:101010000AF05BFE002070BD70B504460D462946FF
:10102000D4F820020AF08EFE002070BD10B50246F2
:10103000D2F8203201F08000802809D101F07F0031
:10104000C0EBC00403F1380000EB8400807810BDD1
:1010500001F07F00C0EBC00403F5EE7000EB8400EC
:101060008078F4E770B504460D462946D4F820028E
:101070000AF0FEFC002070BD2DE9F04104460D464B
:1010800016461F463B4632462946D4F820020AF04F
:10109000DFFD0020BDE8F0812DE9F04104460D465A
:1010A00016461F463B4632462946D4F820020AF02F
:1010B00087FD0020BDE8F08170B504460D46294645
:1010C000D4F820020AF0B8FD70BD10B504462046E1
:1010D00002F0F4F810BD00000246122008804148DA
:1010E00070470246042008803F48704770B50546A7
:1010F0000C462DB922463D493DA014F040FE04E0C7
:1011000022463A4940A014F03AFE384870BD70B506
:1011100005460C462246354941A014F030FE3348BE
:1011200070BD30B50B46002100BF16E00A24B4EBB9
:10113000107F05D9302404EB107403F8114005E04A
:10114000412404EB10740A3C03F81140000100250F
:101150004C00641C1D554C1CE1B29142E6DB30BDD5
:1011600070B534480468001D0568001D06683444E5
:1011700054B1082230492046FFF7D3FF04222E49FC
:1011800010312846FFF7CDFF70BD70B505460C46FF
:101190001A202080FFF7E4FF2748801E70BD70B53D
:1011A00005460C462DB92246104924A014F0E7FD4F
:1011B00004E022460D4921A014F0E1FD0B4870BD6A
:1011C00070B505460C462DB9224608491EA014F0FC
:1011D000D6FD04E0224605491BA014F0D0FD0348CB
:1011E00070BD00003400002048000020A816002038
:1011F0004D6173732053746F7261676520696E204F
:101200004853204D6F6465004D6173732053746FB4
:101210007261676520696E204653204D6F646500DA
:1012200053544D6963726F656C656374726F6E6958
:1012300063730000107AFF1F4E0000204D534320BF
:10124000436F6E66696700004D534320496E7465B5
:10125000726661636500000008B5014600200090D9
:101260009DF9000008BD0346802008604001108001
:101270000020704710B5044600F0F4F940B210BDEC
:101280000146002070472DE9F04107460E461446FE
:101290001D462A463146204600F0CEF80020BDE823
:1012A000F0812DE9F04107460E4614461D462A46B8
:1012B0003146204600F057F90020BDE8F0810020BB
:1012C0007047000070B504460E4630462FF00DFB07
:1012D000C5B2F74908192A4631462FF070FB202085
:1012E0006119F34A50546019401CC0B270BD10B56A
:1012F000002000F088FA052000F095FA002000F0A8
:1013000092FA0446012000F07EFA204610BD7CB51A
:1013100000F0FCF90646012000F083FA012000F0FD
:1013200081FA012000F0DCF90025002000F06BFAC2
:10133000012000F078FA284600F075FA012000F04C
:1013400062FA00BF00BF002000F05DFA9F2000F0AD
:101350006AFA002000F067FA8DF80000002000F023
:1013600062FA8DF80100002000F05DFA8DF80200AD
:10137000002000F058FA40B28DF80300012000F080
:1013800042FA009801909DF8070028B100BF0120A3
:1013900000F039FA02207CBD0020C6490860C64929
:1013A00008609DF804001F2804D1C4A10820FFF79D
:1013B00089FF04E0C3A10820FFF784FF00BF00BF3E
:1013C0009DF8050000F0E000402808D1BFA11020E2
:1013D000FFF778FF4FF48050B749086004E0B9A1E7
:1013E0001020FFF76FFF00BF00BF9DF8050000F061
:1013F0001F00042807D1B9A12020FFF763FF7F2039
:10140000AC49086004E0AFA12020FFF75BFF00BFFC
:1014100000BFFFF76CFF044604F0400028B904F059
:10142000200010B904F0010000B1012600BF012026
:1014300000F0E9F93046AEE72DE9F84F06460F46D1
:1014400090464FF0000AFFF752FF044604F04000B8
:1014500028B904F0200010B904F0010030B100BF39
:10146000012000F0D0F90320BDE8F88F00BF002074
:1014700000F0C9F900BF0B2000F0D5F9300300904F
:101480009DF8020000F0CFF99DF8010000F0CBF9C3
:101490009DF8000000F0C7F9002000F0C4F94FEA01
:1014A0000839002505E0002000F0BDF904467C5510
:1014B0006D1C4D45F7D300BF012000F0A4F9504644
:1014C000D2E72DE9F84307460E464FF00009FFF733
:1014D0000EFF804608F0010030B100BF012000F08F
:1014E00092F90320BDE8F88337B1012F07D0022F0E
:1014F00008D0032F0CD108E0202534030AE0522540
:10150000F40307E0D825340404E06025002401E05A
:10151000002400BF00BF0094012000F0E1F800BFEC
:10152000002000F070F900BF284600F07CF99DF81B
:10153000020000F078F99DF8010000F074F99DF8C0
:10154000000000F070F900F0D6F8FFF7D0FE8046FA
:1015500008F0200008B14FF0010900BF012000F0A1
:1015600052F94846BEE72DE9FE4F04468A46154625
:1015700000200290FFF7BBFE064606F0010030B1E6
:1015800000BF012000F03FF90320BDE8FE8F4FF0BF
:10159000000907E004EB09010020FFF792FF029029
:1015A00009F10109A945F5D3029828B100BF01202E
:1015B00000F029F90298E8E72801009057464FEA21
:1015C00004384FF0000B30E0CDF80480012000F02B
:1015D00087F800BF002000F016F900BF022000F0DD
:1015E00022F99DF8060000F01EF99DF8050000F0B4
:1015F0001AF99DF8040000F016F94FF0000906E012
:1016000017F80960304600F00EF909F10109B9F147
:10161000FF0FF5D9012000F0F6F800F06CF808F59E
:10162000807807F580770BF1010B00988345CBD3C9
:10163000FFF75DFE064606F0200008B1012002908B
:1016400000BF012000F0DFF802989EE710B5B92036
:1016500000F022F8002010BD10B5AB2000F01CF8FF
:10166000002010BD70B50025FFF741FE044604F0D0
:10167000400028B904F0200010B904F0010028B19E
:1016800000BF012000F0BFF8042070BD00BF0120A2
:1016900000F0B9F82846F8E710B50446002000F03D
:1016A000B2F8204600F0BFF8012000F0ACF810BD01
:1016B00068000020100000101400001041646573E1
:1016C000746F0000756E6B6E6F776E00415432352B
:1016D0002F3236444678787800000000344D000000
:1016E00010B504461CB10620FFF7D6FF02E0042027
:1016F000FFF7D2FF10BD10B5FFF7F9FD00BFFFF7F0
:10170000F6FD00F001000028F9D110BD00B587B04A
:1017100000BF002001904E48006840F002004C4994
:1017200008600846006800F00200019000BF00BF9A
:1017300000BF002001900846006840F040000860AB
:101740000846006800F04000019000BF00BF4FF461
:10175000065002900120039004900320059002A9F6
:101760003C4803F08BFF01224FF40651394804F046
:101770001EF93820029002200390012004900320DB
:1017800005900520069002A9334803F077FF00BFBB
:10179000002001902E481430006840F480502C49FD
:1017A000143108600846006800F48050019000BFC2
:1017B00000BF2A482A49086010212948C161002138
:1017C00081604161016181620721C1620021C160C4
:1017D00001624FF400718161002141624FF4827017
:1017E0001F494860084608F074FB08B100BFFEE7D7
:1017F0001B480068006840F040001949096808600B
:10180000002007B000BD70B504460CB1012000E017
:10181000002005462A464FF400510E4804F0C7F850
:1018200070BD70477047014600BF0C48806800F0EB
:1018300002000028F9D00948017300BF07488068FA
:1018400000F001000028F9D00448007B7047000038
:1018500030380240001802400004024000300140CD
:10186000FC07001070470FB5BDF800006C490880F8
:10187000BDF802006A496239A1F86400BDF80400AD
:101880006749091D0880BDF8060065496239A1F85D
:101890006800BDF80800624908310880D8B2604984
:1018A0006239A1F87800C3F307205D491831088038
:1018B0000FBD0FB5BDF8000059490A310880BDF8C9
:1018C000020057496239A1F86E00BDF8040054497E
:1018D0000E310880BDF8060051496239A1F8720046
:1018E000BDF808004E4912310880D8B24C4962391F
:1018F000A1F87C00C3F3072049491C3108800FBDC3
:1019000007B54FF4A070ADF8080000239DE807006C
:10191000FFF7CFFF02204249623908840EBD0FB5A0
:101920003F48801E0380BDF800003D496239A1F8A0
:101930006200BDF802003A49891C0880BDF8080021
:10194000891D088000203649483108800FBD1FB529
:101950001C4600239DE80700FFF785FF3048801EE6
:10196000048002202E496239A1F8A0001FBD0FB4E7
:101970001EB5DDF816000090DDF81A000190BDF8E4
:101980001E00ADF8080000239DE80700FFF76BFF7D
:10199000002308A807C8FFF78CFFBDF82A002049DC
:1019A0001E310880BDF82C001D496239A1F8820063
:1019B000BDF814001A49891E08809DF82E0010B148
:1019C0004FF4804000E0002040F002009DF82F100E
:1019D00011B14FF4004100E0002108439DF831109F
:1019E00009B1042100E0002108439DF8301011B135
:1019F0004FF4005100E0002108439DF8321011B16E
:101A00004FF4006100E0002140EA010404485E3028
:101A100004801EBC5DF814FB014822380088704722
:101A2000620008600021018041808180C180704790
:101A30004FF47A71484300BF011EA0F10100FBD1B1
:101A40007047F8B506460C460021304600F00EFE01
:101A50002146304600F0F6FD0320FFF7E9FF0025A0
:101A60000020009004F0080040B1FF21304600F053
:101A7000E9FD8DF800009DF8005012E0FF2130468E
:101A800000F0E0FD8DF80000FF21304600F0DAFDA7
:101A90008DF801009DF8000040019DF8011040EA1A
:101AA000E1050121304600F0E1FD2846F8BD10B502
:101AB0000446B0212046FFF7C4FF00B210BD10B5A8
:101AC0000446C0212046FFF7BCFF00B210BD10B590
:101AD00004462046FFF7EBFF462801DD012010BD3C
:101AE0000020FCE72DE9F04F8DB082468B4617466B
:101AF000012F04DA4FF0FF300DB0BDE8F08F4FF04A
:101B00000008002400BF07E059465046FFF799FF40
:101B10002DF81400601C04B2BC4204DA5046FFF7F2
:101B2000D6FF0028F0D1254600241AE0601C06B23A
:101B300013E03DF816003DF8141088420BDA3DF82A
:101B400014000FFA80F93DF816002DF814001FFA62
:101B500089F02DF81600701C06B2AE42E9DB601C5D
:101B600004B2681EA042E1DC284605EBD0714910A2
:101B70000CB205EBD0714910A5EB410159B93DF804
:101B80001420611C3DF81110501800EBD071491061
:101B90000FFA81F803E03DF814000FFA80F8404690
:101BA000AAE7F8B507460E4641F22800FEF7A4FB67
:101BB00005464DB900F0C9FC0A221146F9A000F013
:101BC00012FD4FF0FF30F8BD0024062231462846B2
:101BD00015F047FB0446082C09D1304616F03AFBB5
:101BE000044606223146284615F03BFB044664B104
:101BF0002846FEF787FB00F0A8FC0A221146F1A058
:101C000000F0F1FC6FF00100DDE76B463022F24995
:101C1000284615F054FD04467CB1284615F039FFDE
:101C20002846FEF76FFB00F090FC0A221146E5A063
:101C300000F0D9FC6FF00100C5E7284615F029FF38
:101C40002846FEF75FFB0020BDE700BF00BF00BFD6
:101C5000002141608160016000BF00BF00BF00BF84
:101C600000BF00BFDD4A5170022111700122DB4923
:101C7000CA700221D94A91700422D8494A710321BD
:101C8000D64A11710422D549CA710321D34A9171F0
:101C90000122D2494A720121D04A1172704770B5AF
:101CA00004460D4665732946204600F0EDFC0121EF
:101CB000204600F0DBFC0120207370BDF8B507461C
:101CC0000E4641F22800FEF717FB04464CB900F01F
:101CD0003CFC0A221146B3A000F085FC4FF0FF3017
:101CE000F8BD002501223146204615F0BAFA054616
:101CF00025B12046FEF706FB0120F1E70020009009
:101D00006B463022B449204615F099FB05463DB19B
:101D1000204615F0BEFE2046FEF7F4FA0120DFE76C
:101D2000204615F0B6FE2046FEF7ECFA0020D7E775
:101D30002DE9F0412DED0A8B07460522D0213846CA
:101D4000FFF7D0FE84B2052290213846FFF7CAFE85
:101D500085B2002C01DB002D05DA4FF0FF30BDEC21
:101D60000A8BBDE8F081284637F0FFFA41EC1C0BE6
:101D7000994890ED081BB0EE410AF0EE610A53EC71
:101D8000102B51EC1C0B37F003FB41EC1A0B2046D7
:101D900037F0EBFA41EC1C0B8F4890ED061BB0EED0
:101DA000410AF0EE610A53EC102B51EC1C0B37F09A
:101DB000EFFA41EC1B0B53EC1A2B37F03FF841ECD8
:101DC000190B854890ED0A1BB0EE410AF0EE610A4E
:101DD00053EC102B51EC190B37F030F841EC180B89
:101DE00037F02CFA06B2002E01DA0020B7E7B6F57C
:101DF000A07F01D23046B2E740F23F10AFE72DE9B5
:101E0000F0412DED0A8B07460522D0213846FFF719
:101E100069FE0446052290213846FFF763FE054619
:101E2000002C01DB002D05DA4FF0FF30BDEC0A8BF2
:101E3000BDE8F081284637F030FA41EC1C0B6648CB
:101E400090ED021BB0EE410AF0EE610A53EC102B4C
:101E500051EC1C0B37F09CFA41EC1A0B204637F082
:101E60001CFA41EC1C0B5C4890ED001BB0EE410AE3
:101E7000F0EE610A53EC102B51EC1C0B37F088FA92
:101E800041EC1B0B53EC1A2B36F0D8FF41EC190B2D
:101E9000514890ED041BB0EE410AF0EE610A53EC9C
:101EA000102B51EC190B36F0C9FF41EC180B37F031
:101EB000C5F906B2002E01DA0020B7E7B6F5F07FCB
:101EC00001D23046B2E740F2DF10AFE72DE9F04F24
:101ED00089B006460C4691469A46307B002860D071
:101EE000002030733046FFF7F2FD80F001003B49DF
:101EF0003B4A92F9002001EB4201085C3849087026
:101F0000084690F90000052837D2DFE800F0030703
:101F10001A2935000120334908802EE03148008815
:101F2000401E00B22F490880002809DA0020A08056
:101F3000012008802046FFF775FD00202849087021
:101F40001BE00120274908803046FFF758FF20801A
:101F50003046FFF7EDFE6080A088401CA0800CE0BA
:101F60003046FFF74CFF20803046FFF7E1FE6080EF
:101F7000E088401CE08000E000BF00BF4FF0FF356C
:101F8000174890F90000022804D003282ED0042816
:101F900046D140E001251448216801606168416034
:101FA0003EE06AE0544F4F20534D414C4C20434F8C
:101FB00052452E204445564943452048414C5445FE
:101FC0004400000046494C4520575249544520449E
:101FD000454E494544000000200000105408001000
:101FE000520000105000001054000010FE480088FD
:101FF000142804D904251320FB49088005E0022594
:10200000F9480088401CF8490880F84821680160B8
:102010006168416004E00020F3490880032500BFA7
:1020200000BF002D25DB07A8F0494160056000BF17
:1020300080460068D8F80410CDE9050105A8049091
:10204000039000BF7768BB460EE0BB467F6800BFC9
:10205000039903C9CDE90101DBF80C20DDE9010199
:10206000904700BF00BF00BF002FEED100BF00BFF0
:1020700000BF002009B0BDE8F08F4FF0FF30F9E756
:10208000417B01B970470121017300BFFAE7417B31
:1020900009B90121017370472DE9F0412DED0E8B37
:1020A00086B007468846182168462EF029FD00F0C4
:1020B000EDF9002801DA00BFFEE700F046FA0A2237
:1020C0001146CBA000F08FFA00BF3846FFF7FFFCA7
:1020D0000028FAD000BF3846FFF7F9FC0128FAD0F3
:1020E00000F033FA002478255026ADF80050ADF802
:1020F000026005EB4500ADF808007000ADF80A007D
:10210000ADF8105006EB4600ADF8120044E00A228C
:102110001146C4A000F067FA6A4602EBC402B2F9A5
:1021200002103DF93400052200F02BFA00BF3846BA
:10213000FFF7CDFC0028FAD01922D0213846FFF74E
:10214000D1FC694601EBC4018880192290213846F0
:10215000FFF7C8FC694601EBC401C88000BF3846E0
:10216000FFF7B5FC0128FAD0684600EBC400B0F9CF
:10217000040000280BDD684600EBC400B0F906003F
:10218000002804DD00F0E1F9601C84B204E01422B0
:102190000A21AAA000F027FA032CB8DBBDF904201D
:1021A000BDF91410511ABDF90E30BDF916209A1A56
:1021B0005143BDF90C30BDF914209B1ABDF906C07E
:1021C000BDF91620ACEB020203FB121037F065F8E4
:1021D00041EC180BBDF90010BDF91020891ABDF9AA
:1021E0000E30BDF916209A1A5143BDF90820BDF9E9
:1021F0001030D31ABDF906C0BDF91620ACEB0202AF
:1022000003FB121037F049F841EC190BBDF904201B
:10221000BDF91410511ABDF90820BDF91030D21AB9
:102220005143BDF90C30BDF914209A1ABDF90030A4
:10223000BDF910C0A3EB0C0302FB131037F02DF80F
:1022400041EC1A0BBDF80C20BDF8161012FB01F280
:10225000BDF91430BDF90E1003FB1121BDF90020AA
:102260005143BDF80430BDF8162013FB02F3BDF94D
:102270001420BDF906C002FB1C32BDF9083003FB77
:102280001212BDF80430BDF80E1013FB01F3BDF9B6
:102290000C1001FB1C31BDF9103003FB012036F09E
:1022A000FCFF41EC1B0BBDF90220BDF91210511AC5
:1022B000BDF90E30BDF916209A1A5143BDF90A3006
:1022C000BDF912209B1ABDF906C0BDF91620ACEB72
:1022D000020203FB121036F0E0FF41EC1C0BBDF9CB
:1022E0000420BDF91410511ABDF90A30BDF91220AD
:1022F0009A1A5143BDF90C30BDF914209B1ABDF94F
:1023000002C0BDF91220ACEB020203FB121036F042
:10231000C4FF41EC1D0BBDF80C20BDF8161012FBDC
:1023200001F2BDF91430BDF90E1003FB1121BDF906
:1023300002205143BDF80430BDF8162013FB02F310
:10234000BDF91420BDF906C002FB1C33BDF90A20FB
:1023500002FB1312BDF80430BDF80E1013FB01F39D
:10236000BDF90C1001FB1C33BDF9121001FB032059
:1023700036F093FF41EC1E0B53EC182B51EC190B6C
:1023800036F004FE41EC100B334880ED000B53ECAB
:10239000182B51EC1A0B36F0F9FD41EC100B2E48BE
:1023A00080ED020B53EC182B51EC1B0B36F0EEFDBD
:1023B00041EC100B284880ED040B53EC182B51EC2A
:1023C0001C0B36F0E3FD41EC100B234880ED060BAF
:1023D00053EC182B51EC1D0B36F0D8FD41EC100BD3
:1023E0001D4880ED080B39E05C000010540000101F
:1023F00053544152542043414C4942524154494F55
:102400004E2E2E2E2028544F554348205448452008
:1024100053435245454E20544F20424547494E298B
:1024200000000000506C6561736520746F7563680F
:10243000206D61726B65722E2E2E0000546F7563D5
:1024400068206572726F722C20706C6561736520F4
:1024500072657472792E00002000001053EC182B66
:1024600051EC1E0B36F092FD41EC100B064880ED4E
:102470000A0B00F00BF841463846FFF792FB06B016
:10248000BDEC0E8BBDE8F081200000102DE9F04F6F
:1024900087B04FF0000A5420FDF72EFF04464FF09E
:1024A000010A4FF4A0704FF4F07100221346CDE9F9
:1024B000002102904FF0C0429249204636F042FC83
:1024C00004464FF0000A90480460006820B94FF0BD
:1024D000FF3007B0BDE8F08F8B48002637464FF439
:1024E000F0784FF4A079056843463A46314601A892
:1024F000CDF8009036F080FB01A904A836F06EFB01
:1025000083465946284636F09FFB804908600846B6
:10251000006860B97C48006830B17B48006836F0DC
:1025200057FC0546FDF7EEFE4FF0FF30D1E70020E7
:10253000CFE710B57448006830B17348006836F0D2
:1025400047FC0446FDF7DEFE10BD3EB56F484FF672
:10255000FF750468D4F8271001F11800294634F0FB
:1025600025FA00BF6A48016800914168019100891D
:10257000ADF80800029A0098FFF7C2F9FDF7E2FEF5
:102580003EBDF0B585B005460E46144628B2ADF8FE
:102590000C0030B2ADF80E0020B2ADF8100020B241
:1025A000ADF812005948006830F0AEFA00F11C078F
:1025B0004FF4FC6300EE104AB8EEC00A3846DDE97D
:1025C000031235F04FFA52480168009141680191B9
:1025D0000089ADF80800029A0098FFF791F9FDF71D
:1025E000B1FE05B0F0BDF0B585B004460D46164607
:1025F000484903C9CDE9030128B2ADF80C0030B257
:10260000ADF80E004148006830F07EFA0746002021
:102610004FF478412346CDE900103846DDE9031236
:1026200034F035FC3A480168009141680191008915
:10263000ADF80800029A0098FFF762F9FDF782FEF4
:1026400005B0F0BD024600BF3348806800F00200CC
:102650000028F9D03048017300BF2F48806800F08F
:1026600001000028F9D02C48007B704770B5054662
:102670000C4621462948FDF7A4FF70BD10B504465D
:102680002748FDF7C5FF10BD38B505460C4600BF0D
:10269000002000902348006840F0080021490860AD
:1026A0000846006800F00800009000BF00BF00BFAF
:1026B000002000900846006840F04000086008468E
:1026C000006800F04000009000BF00BF032301221B
:1026D00000211348FDF74CFF0323012211460F4848
:1026E000FDF746FF032301220F491048FDF740FF85
:1026F0003CB100220221082000F07CFE082000F0FE
:10270000B7FE38BD30040020F0000020F4000020A7
:10271000F800002034FE030800300140E8000020EB
:10272000D80000203038024000002110E0000020D6
:10273000704770478160C26001604260002303619E
:1027400070472DE9F04705460E461746984606FBAA
:1027500007F04FEA400A40462EF0C7F881462C6841
:1027600009F10F002080218828680844C4F8060079
:102770006680A7804A46414604F10E002EF01FF9FC
:10278000D4F8060050442860286908B92C6102E09A
:102790002869C0F80A400020C4F80A002046BDE8B5
:1027A000F08770B505460E46286908B9002070BD4F
:1027B0002C6809E0314604F10E002EF0C9F908B981
:1027C0002046F4E7D4F80A40002CF3D10020EEE7CD
:1027D00081680160C1684160002101617047014664
:1027E00001F1180000BF00BF00224260826040F883
:1027F000182900BF00BF00BF00BF00BF0146002076
:102800008880CA800A814A810875401E086008468F
:10281000704710B5044604F118002FF013F9A0F129
:102820001804204610BD0B6843604B68836002604B
:10283000012303757047F0B589B00446207D08B9BF
:1028400009B0F0BD002020756068E060A0682061DC
:1028500007A804F10C0122684160026000BF07462E
:1028600000687968CDE9050105A80490039000BFD0
:10287000E5692E460DE02E466D6800BF039903C939
:10288000CDE90101F268DDE90101904700BF00BF19
:1028900000BF002DEFD100BF00BF681E206000BF49
:1028A000CEE7002181800022C28002814281017531
:1028B000491E01607047000000E0401E0028FCDC5B
:1028C0007047002003E00021434A1154401C202897
:1028D000F9DB704710B501460A46002300200AE0E4
:1028E0003D4C245C42EA4404E3B23B4C245CE209E4
:1028F000394C2354401C2028F2DB10BD002107E096
:102900003548405CFF2802D04FF0FF307047491C2B
:102910002029F5DB0120F9E710B50246002000214F
:102920002E4B588801E02D4B58884FF60173984282
:10293000F9D10323294C238001E0284B198801F0A9
:102940000403042BF9D110BD70B504460D46206870
:102950000021C26820469047206829460268204628
:10296000904720680121C26820469047FFF7A9FFE1
:102970000AE020684168204688470646FFF7AAFF1C
:102980004FF47A70FFF798FFFFF7B8FF0028F0DBED
:1029900042F21070FFF790FF70BD1149016070475F
:1029A000704770B504460D46206841692046884747
:1029B00029462046FFF7C8FF2046FFF7ADFF70BD50
:1029C00070B504460D4629462046FFF7BDFF204658
:1029D000FFF7A2FF70BD7047A81700200000086035
:1029E000249F050870B505460C460CB1012000E097
:1029F000002001463048FDF7E4FD70BD10B50446E7
:102A00002E48FDF705FE10BD01460020704770B549
:102A100005460C4621462A48FDF7D3FD70BD10B58A
:102A200004462848FDF7F4FD10BD38B5044600BF44
:102A3000002000902448006840F0400022490860CF
:102A40000846006800F04000009000BF00BF00BFD3
:102A5000002000900846006840F0800008600846AA
:102A6000006800F08000009000BF00BF0323002238
:102A700001211148FDF77CFD0323002201211048AC
:102A8000FDF776FD0323002211461048FDF770FD87
:102A90000323012200210B48FDF76AFD03230122D5
:102AA00000210648FDF764FD032300220849094878
:102AB000FDF75EFD38BD0000040100200C01002080
:102AC0001C01002024010020303802402C0100208D
:102AD000000011101401002070B5044605E02078B4
:102AE0002DF008FEC5B22570641C20780028F6D1B0
:102AF00070BD70B505460C4606E020782DF0FAFD55
:102B0000C6B22E70641C6D1C20780028F5D170BDF3
:102B10002DE9F04105460C4616464FF0000806E048
:102B200020782DF0E7FDC7B22F70641C6D1C207853
:102B300020B1404608F10108B042F1DB0020BDE8B9
:102B4000F08170B502460B460024002107E0505C7E
:102B5000984203D0565C2046641C1654491C505CB5
:102B60000028F4D170BDF0B502460B4600260021C6
:102B70000024002518E00024012508E012F801C017
:102B80002046641C185C844501D1002502E0185DD4
:102B90000028F3D100BF012D05D112F801C0304645
:102BA000761C02F800C0491C505C0028E3D1F0BD3F
:102BB0002DE9F041054688462878302803D04FF0AB
:102BC000FF30BDE8F0816878782805D0687858280B
:102BD00002D04FF0FF30F4E7A8782DF08BFDC4B29F
:102BE000412C03DBA4F13700C6B202E0A4F13000AF
:102BF000C6B2E8782DF07EFDC4B2412C03DBA4F10F
:102C00003700C7B202E0A4F13000C7B207EB0610EC
:102C100088F800000020D4E7F8B504460F4614F801
:102C2000011B302902D04FF0FF30F8BD2078782802
:102C300005D02078582802D04FF0FF30F5E7641C0B
:102C4000002619E0A05D2DF055FDC5B2302D0FDB3B
:102C5000462D0DDC412D05DBA5F13700C0B20DF886
:102C6000060008E0A5F13000C0B20DF8060002E051
:102C700000200DF80600761C042EE3DB9DF8000012
:102C800000039DF8011000EB01209DF8021000EBFD
:102C900001109DF80310084438800020C5E72DE995
:102CA000FC4104460F4614F8011B302903D04FF0B5
:102CB000FF30BDE8FC812078782805D0207858289E
:102CC00002D04FF0FF30F4E7641C002619E0A05D4D
:102CD0002DF010FDC5B2302D0FDB462D0DDC412D42
:102CE00005DBA5F13700C0B20DF8060008E0A5F13C
:102CF0003000C0B20DF8060002E000200DF806001A
:102D0000761C082EE3DB9DF8000000079DF80110FB
:102D100000EB01609DF8021000EB01509DF80310DC
:102D200000EB01409DF8041000EB01309DF8051008
:102D300000EB01209DF8061000EB01109DF8071034
:102D4000084438600020B4E72DE9F0478046894602
:102D500040462DF0CAFD04461CB94FF0FF30BDE8D7
:102D6000F087012600270025002113E0601A401E8D
:102D700018F80050302D06DB392D04DCA5F13000A9
:102D800000FB067702E04FF0FF30E8E706EB860035
:102D90004600491CA142E9DBC9F800702046DEE785
:102DA0002DE9F0478046894640462DF09EFD0546B8
:102DB0001DB94FF0FF30BDE8F08701270026002441
:102DC000002117E0681A401E18F80040302C06DB7E
:102DD000392C04DCA4F1300000FB076606E02D2C42
:102DE00001D1764208E04FF0FF30E4E707EB8700BF
:102DF0004700491CA942E5DBC9F800602846DAE72C
:102E00002DE9F35F824650462DF06FFD8146B9F102
:102E1000000F03D14FF0FF30BDE8FC9F01274FF0BA
:102E20000008002425460026002129E0A9EB010026
:102E3000401E1AF80060302E0DDB392E0BDCA6F197
:102E40003000C217A0FB073C02FB07C200FB0820B2
:102E50001C19454109E02D2E04D10023644263EB87
:102E600005050FE04FF0FF30D6E70A2200203B4671
:102E7000A3FB02BE08FB02E207FB00285F46491CD9
:102E80004945D3DB019830C04846C5E770B52DED04
:102E9000028B8AB005460E460021089109910691E1
:102EA0000791002403E0285D0DF80400641C285DF0
:102EB0002E2801D0182CF6DB182C00D02CB94FF09E
:102EC000FF300AB0BDEC028B70BD00200DF804008D
:102ED00006A96846FFF794FF002802DA4FF0FF309A
:102EE000EFE72919481C08A9FFF78AFF0446002CC0
:102EF00002DA4FF0FF30E4E7DDE9080136F03FFC8D
:102F000008EE100A05E0B2EE040AC8EE000AB0EEC0
:102F1000608A201EA4F10104F5D10023DDE906201A
:102F2000D21A984103DAB1EE480AB0EE408ADDE9E0
:102F3000060136F024FC00EE100A30EE080A86ED99
:102F4000000A0020BDE770B52DED048B8AB0054660
:102F50000E4600210891099106910791002403E093
:102F6000285D0DF80400641C285D2E2801D0182C63
:102F7000F6DB182C00D02CB94FF0FF300AB0BDECB6
:102F8000048B70BD00200DF8040006A96846FFF709
:102F900037FF002802DA4FF0FF30EFE72919481C0D
:102FA00008A9FFF72DFF0446002C02DA4FF0FF308E
:102FB000E4E7DDE9080136F087F941EC180B09E098
:102FC0009FED240B53EC102B51EC180B35F0DEFF6A
:102FD00041EC180B201EA4F10104F1D1002211468E
:102FE000DDE906309A1A884105DA51EC180B35F004
:102FF00019FF41EC180BDDE9060136F065F953ECD9
:10300000182B35F01BFFC6E900010020B6E77CB5A0
:1030100004460D46207810B94FF0FF307CBD0522E4
:1030200021466846FFF774FD042269460BA02DF087
:103030007BFC18B9012028700020EFE705226946C3
:1030400008A02DF071FC10B900202870E6E74FF0C1
:10305000FF30E3E7000000000000244054525545D3
:103060000000000046414C534500000073B582B09B
:10307000DDE90201CDE90001002410E05E4850F8CE
:10308000240058B100BF00980546019806465A49E9
:1030900051F824002A463146FFF7C5FB641C142C66
:1030A000ECDB7FBD70B504460D4600215348FEF7AA
:1030B000F6FD524830F01EF970BD014670470146DA
:1030C00070470146002007E04B4A52F820208A4210
:1030D00000D17047421CD0B21428F5DB4FF0FF300E
:1030E000F7E70021002006E0434A52F8201001B91A
:1030F0007047421CD0B21428F6DB4FF0FF30F7E7E0
:103100002DE9F04706460F4614460025A04600BFAD
:10311000D8F80400814600BFD8F8000082460C2F82
:103120001CD008DC17F1030F16D017F1020F07D0DF
:10313000022F26D111E0142F17D0242F21D11FE008
:103140002E48FEF7A4FF2E4803682E484946026821
:103150002A48FEF7BBFE15E014E013E0FFF7C1FFBD
:103160000546254840F825600CE03046FFF7A9FFEA
:103170000546002D03DB00201F4941F8250001E032
:1031800000E000BF00BF0020BDE8F087034600203C
:1031900070470022002107E0174850F821200AB1AB
:1031A00010467047481CC1B21429F5DB0020F8E72F
:1031B00070B504460D46012613A11048FEF77EFDAA
:1031C0000646012E04D110A10C48FEF765FF064605
:1031D00016B14FF0FF3070BD0A4804600848056022
:1031E0000020F8E710B50548FEF72FFD0446094A10
:1031F00009492DF013FB10BDD8170020C817002077
:103200003801002034010020747363323034362ECC
:1032100063616C000000000883120308704710B55A
:103220005C48006840F400705A490860084600682D
:1032300040F480600860032000F0CAF8FFF7EEFF5A
:10324000002010BD704710B54FF0FF3052490860A4
:1032500000200860401E091D086000200860401E14
:103260004D491039086000200860401E091D0860A3
:1032700000200860401E091D086000200860FFF75C
:10328000E1FF002010BD70B50446444800684FF4CB
:103290007A71B0FBF1F5284600F039F90022214699
:1032A000501E00F0A7F8002070BD3D480068401C8B
:1032B0003B49086070473A480068704731B50024C0
:1032C000FFF7F9FF044600BFFFF7F5FF001B009969
:1032D0008842F9D338BD4FF0E020006920F00200A9
:1032E0004FF0E021086170474FF0E020006940F0A6
:1032F00002004FF0E021086170472A4870472A48D1
:103300000068000C704728480068C0F30B00704745
:103310002548406840F00100234948607047224832
:10332000406820F001002049486070471E4840680E
:1033300040F002001C49486070471B48406820F07C
:1033400002001949486070471748406840F004007F
:103350001549486070471448406820F0040012493D
:1033600048607047012090FAA0F1B1FA81F10F4A4C
:1033700002EB8101C1F8000470470020012191FA9D
:10338000A1F1B1FA81F1094A02EB8101C1F800040F
:1033900070470000003C02402038024040060020F8
:1033A0006000001000000501002004E0000027423A
:1033B00010B5002804DB0A07130ED34A135406E0A5
:1033C0000A07140ED14A00F00F031B1FD45410BD7E
:1033D00000BF00F00702CD4B0C3B19684FF6FF030E
:1033E0001940CB4B0B4343EA0221C84B0C3B1960FD
:1033F00000BF70472DE9F05F80460D461646002756
:1034000000F07BF9074639462A46334601F00700AB
:10341000C0F1070ABAF1040F02D94FF0040A01E023
:10342000C0F1070AD14600F1040ABAF1070F02D22F
:103430004FF0000A01E0A0F1030AD4464FF0010A60
:103440000AFA09FAAAF1010A0AEA020A0AFA0CFAC5
:103450004FF0010B0BFA0CFBABF1010B0BEA030B6A
:103460004AEA0B0421464046FFF7A2FFBDE8F09F61
:1034700001460846002809DB00F01F0301229A409C
:1034800043099B0003F1E023C3F8002100BF70470C
:1034900010B501460846002817DB00F01F03012283
:1034A0009A409C4B440943F8242000BF00BF00BF52
:1034B000BFF34F8F00BF00BF00BF00BF00BF00BF02
:1034C000BFF36F8F00BF00BF00BF00BF10BD00BFC4
:1034D00000BF00BF00BF00BFBFF34F8F00BF00BFE2
:1034E00000BF8A480C38006800F4E060884908434F
:1034F000001D86490C39086000BF00BF00BFBFF344
:103500004F8F00BF00BF00BF00BF00BFFDE770B519
:1035100004462546681EB0F1807F01D301200FE0EC
:10352000681E4FF0E02148610F214FF0FF30FFF798
:103530003FFF00204FF0E021886107200861002054
:1035400070BD4178714A803211600178F9B1121D65
:1035500041681160017B0907C27A41EA0261827AFF
:1035600041EAC241427B41EA8241827B41EA4241D7
:10357000C27B41EA0241427A41EA0221027A41EAEF
:10358000420102781143614A8832116005E000214E
:103590005E4A84321160121D1160704710B500F050
:1035A000ACF810BD2DE9F04304462046002803DBAB
:1035B000554F3F5C3F0907E0544F00F00F0CACF152
:1035C000040C17F80C703F093D460E4606F0070044
:1035D000C0F10708B8F1040F02D94FF0040801E068
:1035E000C0F10708C44600F10408B8F1070F02D281
:1035F0004FF0000801E0A0F10308474625FA07F85C
:103600004FF0010909FA0CF9A9F1010908EA0908C2
:10361000C2F800804FF0010808FA07F8A8F1010885
:1036200008EA0508C3F8008000BFBDE8F08310B5C4
:1036300001460846002808DB00F01F0301229A40DB
:10364000344B8033440943F8242000BF10BD10B52B
:103650000146084600280EDB2E4A8032430952F804
:10366000232000F01F040123A3401A400AB10122C5
:1036700002E0002200E00022104610BD10B5014615
:103680000846002807DB00F01F0301229A40224B66
:10369000440943F8242000BF10BD10B50146084678
:1036A00000280EDB1C4A8032430952F8232000F028
:1036B0001F040123A3401A400AB1012202E00022A4
:1036C00000E00022104610BD042808D14FF0E02190
:1036D000096941F004014FF0E022116107E04FF069
:1036E000E021096921F004014FF0E02211617047E7
:1036F000704710B5FFF7FCFF10BD04480C38006898
:10370000C0F302207047000000E400E018ED00E084
:103710000000FA0580E100E080E200E0704710B5AB
:1037200004460CB9012010BD94F8250028B90020EA
:1037300084F824002046FFF7F1FF022084F82500DA
:103740002068006840F6F871884321680860616964
:1037500060680843E168084321690843A168084399
:10376000A1690843216A0843216809680843216860
:103770000860606810281DD1217F607F4FF47F4270
:1037800092FAA2F2B2FA82F290400843A17F4FF47B
:103790007F0292FAA2F2B2FA82F291400843E17FEC
:1037A0004FF07F4292FAA2F2B2FA82F291400843BD
:1037B000216888612068C06840F01E002168C860E8
:1037C0000020E063012084F825000020ABE770476B
:1037D00010B504462046FFF7FAFF0020E06384F8A6
:1037E000250000BF84F8240000BF10BD70B5064658
:1037F0000025B46BA06A68B3A06B0068006800F491
:103800000025A06A00F0010078B975B1A06B0068CE
:10381000C568E26A082303FB02510022A06B01F095
:103820001DFFA06A401EA0622FE0A06B0068006828
:1038300000F4002048BBA06B00680569E26A082319
:1038400003FB02510122A06B01F008FFA06A401E99
:10385000A0621AE0A06B0068006800F4002020B1AC
:10386000D4E90D010968C8600FE0A06B006800682A
:1038700000F4002048B9656BE06A042101FB0050A8
:10388000A16B09680861206BA062A06A216B884265
:103890000ED12068C06840F001002168C86020682F
:1038A000006800F00200022802D1012084F82500FF
:1038B00070BD704770B50546AC6BA06B406D0228BB
:1038C00002D0012084F825002046FFF7F2FF70BDEA
:1038D0002DE9F84304460F4615461E464FF00008F2
:1038E00000BF94F82400012802D10220BDE8F8832B
:1038F000012084F8240000BF022084F825002068FD
:10390000006840F48040216808602068006820F06A
:103910000200216808602068006838432168086058
:10392000D948A16BC863D948A16BC8640020A16BBA
:103930000865A0622063B6F5803F08D2226802F1D4
:10394000280133462A46A06B00F05EFB24E0CE48F7
:10395000A16B48640120A062E662656305E0E06A4D
:103960004008E062A06A4000A062E06AB0F5803FD3
:10397000F5D2A06A801EA062A06A2063E06A0421DA
:1039800001FB0058E06A0090226802F128014346DA
:103990002A46A06B00F078FE2068006840F0010025
:1039A0002168086000BF002084F8240000BF00BF29
:1039B0009CE738B50446B64800680E21B0FBF1F02C
:1039C0000090002500BF94F82400012801D10220B6
:1039D00038BD012084F8240000BF022084F82500AF
:1039E0002068006820F001002168086000BF00988E
:1039F000411E009120B9E06B40F02000E0630325F8
:103A00002068006800F001000028F0D120680068FC
:103A100020F4804021680860A06B00F044FBE06B5C
:103A2000E063012084F8250000BF002084F8240012
:103A300000BF2846CCE708B50146954800680E232C
:103A4000B0FBF3F00090002200BF91F824000128A1
:103A500001D1022008BD012081F8240000BF91F8A7
:103A6000250002281DD1052081F82500086800687E
:103A700020F001000B68186000BF0098431E0093FF
:103A800040B9C86B40F02000C863012081F82500D0
:103A9000032205E00868006800F001000028ECD16E
:103AA00000BF00BF002081F8240000BF1046D1E70E
:103AB000014600BF91F82400012801D1022070477F
:103AC000012081F8240000BF91F82500052808D1C5
:103AD000022081F825000868006840F001000A68AB
:103AE000106000BF002081F8240000BF00BFE6E79F
:103AF00070477047704770B504462068056905F047
:103B0000040004280ED121684861E06B40F00200F7
:103B1000E063042084F825005C48A16B0865A06B75
:103B200000F01AFB05F0020002280ED1216848615E
:103B3000E06B40F00100E063042084F82500534866
:103B4000A16B0865A06B00F007FB05F010001028C2
:103B500004D12168486120462AF0A2FE05F0080041
:103B6000082804D1216848612046FFF7C2FF05F00C
:103B70000100A0B12068006800F00200022805D111
:103B80002068C06820F01E002168C8602068C068F6
:103B900020F001002168C8602046FFF7A9FF70BD32
:103BA00070B50446049D00BF94F82400012801D19B
:103BB000022070BD012084F8240000BF022084F898
:103BC0002500344E96FAA6F6B6FA86F605FA06F001
:103BD000184326687062304E96FAA6F6B6FA86F654
:103BE00002FA06F0084326683062012084F82500B6
:103BF00000BF002084F8240000BF00BFD9E70146C1
:103C000000BF91F82400012801D102207047012053
:103C100081F8240000BF022081F8250008680068B0
:103C200020F004000A681060012081F8250000BF20
:103C3000002081F8240000BF00BFE7E7014600BF75
:103C400091F82400012801D102207047012081F859
:103C5000240000BF022081F825000868006840F0B9
:103C600004000A681060012081F8250000BF0020D0
:103C700081F8240000BF00BFE7E7014691F8250066
:103C800070470146C86B7047ED370008B53800082B
:103C9000400600200000FF3F0000FF1F10B5044653
:103CA0000CB9012010BD94F8250010B92046FFF78B
:103CB00035FD022084F825002068006840F6F87180
:103CC000884321680860616960680843E1680843C7
:103CD00021690843A1680843A1690843216A084390
:103CE00021680968084321680860606810281DD1B0
:103CF000217F607F4FF47F4292FAA2F2B2FA82F201
:103D000090400843A17F4FF47F0292FAA2F2B2FAE8
:103D100082F291400843E17F4FF07F4292FAA2F293
:103D2000B2FA82F291400843216888612068C06835
:103D300040F01E002168C8600020E063012084F884
:103D400025000020AEE7000001460878103818234F
:103D5000B0FBF3F2FE48805CC865032A05D9086809
:103D60006FF30900001D886503E008686FF3090020
:103D70008865886D7047014600208A6A8B6903BB9D
:103D800032B1012A0CD0022A10D0032A17D115E033
:103D9000CB6A03F08073B3F1807F00D101200FE084
:103DA000CB6AB3F1C07F00D1012009E0CB6A03F0F8
:103DB0008073B3F1807F00D1012001E000E000BFFB
:103DC00035E08B69B3F5005F1BD132B1012A06D013
:103DD000022A0CD0032A12D10BE0012010E0CB6A9A
:103DE00003F08073B3F1807F00D1012008E001204F
:103DF00006E0CB6AB3F1C07F00D1012000E000BF34
:103E000015E032B1012A05D0022A04D0032A0CD1D0
:103E100003E000BF00BF012008E0CB6A03F080731D
:103E2000B3F1807F00D1012000E000BF00BF7047E8
:103E30002DE9F04104460025FFF73DFA074614B985
:103E40000120BDE8F081606A00B100BF00BF002022
:103E500084F8340000BF022084F835002068006830
:103E600020F00100216808600AE0FFF724FAC01B77
:103E7000052805D920206065032084F83500E0E797
:103E80002068006800F001000028EED12068056875
:103E9000B0480540D4E901010843E16808432169BD
:103EA000084361690843A1690843E1690843216A3D
:103EB00008430543606A042803D1D4E90B01084391
:103EC0000543206805602068456925F00705606A9C
:103ED0000543606A04280BD1A06A05432046FFF71A
:103EE0004AFF28B140206065012084F83500A8E72A
:103EF000206845612046FFF727FF064694F85C10CE
:103F00003F208840B06000206065012084F83500C3
:103F1000002096E770B504460CB9012070BD94F8F6
:103F20003500022800D1F9E72068006820F0010080
:103F300021680860002021680860216848602168C5
:103F400088602168C8602168086121202168486173
:103F50002046FFF7F9FE054694F85C103F208840A4
:103F6000A8600020606584F8350000BF84F8340044
:103F700000BF00BFD2E730B50468246824F4802471
:103F800005682C60046863608468402C04D1046870
:103F9000A2600468E16003E00468A1600468E26074
:103FA00030BD2DE9F04104460D4616461F464FF040
:103FB000000800BF94F83400012802D10220BDE8B7
:103FC000F081012084F8340000BF94F83500012806
:103FD00011D1022084F83500002060653B4632464E
:103FE00029462046FFF7C7FF2068006840F001001F
:103FF0002168086006E000BF002084F8340000BF9C
:104000004FF002084046DAE72DE9F04704460D4636
:1040100016461F464FF00008D4F8589000BF94F899
:104020003400012802D10220BDE8F087012084F885
:10403000340000BF94F8350001282BD1022084F809
:104040003500002060653B46324629462046FFF792
:1040500092FF94F85C103F208840C9F8080020685F
:10406000006840F01600216808602068406940F050
:10407000800021684861206C28B12068006840F009
:104080000800216808602068006840F0010021688D
:10409000086006E000BF002084F8340000BF4FF045
:1040A00002084046C0E770B50446A56DFFF703F966
:1040B000064694F83500022808D08020606500BFCD
:1040C000002084F8340000BF012070BD2068006823
:1040D00020F01600216808602068406920F0800008
:1040E00021684861206C08B9A06C28B1206800687C
:1040F00020F00800216808602068006820F00100B6
:10410000216808600FE0FFF7D6F8801B05280AD960
:104110002020606500BF002084F8340000BF032029
:1041200084F83500D1E72068006800F0010000281D
:10413000E9D194F85C103F208840A86000BF0020BF
:1041400084F8340000BF012084F835000020BCE76B
:104150003CFE03083F8010F0014691F8350002282C
:1041600003D08020486501207047052081F8350084
:104170000868006820F001000A6810600020F3E77A
:104180002DE9F05F0446884617464FF0000AFFF716
:1041900092F883462068006800F4807028B14FF4DC
:1041A000807060650120BDE8F09FB8F1000F05D177
:1041B00094F85C10202000FA01F904E094F85C10F7
:1041C000102000FA01F9A56D2E6843E0781C90B12B
:1041D0002FB1FFF770F8A0EB0B00B8420BD92020ED
:1041E000606500BF002084F8340000BF012084F81F
:1041F00035000320D7E794F85C1008208840304051
:1042000040B1606D40F00100606594F85C100820DA
:104210008840A86094F85C10F2488840304040B173
:10422000606D40F00200606594F85C10ED488840D5
:10423000A86094F85C10EB48C01C8840304048B13E
:10424000606D40F00400606594F85C10E548C01CA7
:104250008840A86006EA09000028B7D0606DB0B1B8
:10426000606D00F0010080B12046FFF71CFF94F85C
:104270005C1030208840A86000BF002084F8340023
:1042800000BF012084F835008DE74FF0010AB8F136
:10429000000F0DD194F85C1030208840A86000BF5A
:1042A000002084F8340000BF012084F8350004E0C9
:1042B00094F85C1010208840A860504673E7F8B569
:1042C000044600200090C84800684FF41651B0FB27
:1042D000F1F7A56D2E6894F85C10082088403040F6
:1042E00098B12068006800F0040070B12068006890
:1042F00020F004002168086094F85C1008208840D1
:10430000A860606D40F00100606594F85C10B548ED
:104310008840304068B12068406900F0800040B1BA
:1043200094F85C10AF488840A860606D40F00200CF
:10433000606594F85C10AB48C01C8840304070B198
:104340002068006800F0020048B194F85C10A548AD
:10435000C01C8840A860606D40F00400606594F85F
:104360005C1010208840304078B32068006800F06E
:10437000080050B394F85C1010208840A8602068B2
:10438000006800F4802080B12068006800F40020FC
:1043900028B9206CC8B12046216C884715E0A06C74
:1043A00098B12046A16C88470FE02068006800F4AF
:1043B000807028B92068006820F008002168086033
:1043C000206C10B12046216C884794F85C102020A6
:1043D00088403040002865D02068006800F0100058
:1043E00000285FD094F85C1020208840A86094F8E2
:1043F0003500052828D12068006820F016002168C3
:1044000008602068406920F0800021684861206CC5
:1044100008B9A06C28B12068006820F00800216865
:10442000086094F85C103F208840A86000BF00201E
:1044300084F8340000BF012084F83500206D10B1ED
:104440002046216D8847F8BD2068006800F4802070
:1044500080B12068006800F4002028B9606C10B1B9
:104460002046616C88471DE0E06BD8B12046E16BC7
:10447000884717E02068006800F4807068B92068F9
:10448000006820F010002168086000BF002084F858
:10449000340000BF012084F83500E06B10B12046E5
:1044A000E16B8847606D38B3606D00F00100F0B1DA
:1044B000052084F835002068006820F0010021689C
:1044C000086000BF0098401C0090B84200D905E089
:1044D0002068006800F001000028F3D100BF00BF91
:1044E000002084F8340000BF012084F83500E06C1F
:1044F00010B12046E16C884700BFA4E710B5034621
:10450000002400BF93F83400012801D1022010BD1F
:10451000012083F8340000BF93F83500012814D13E
:10452000062910D2DFE801F0030507090B0DDA6355
:104530000AE01A6408E05A6406E09A6404E0DA6467
:1045400002E01A6500E000BF00E0012400BF002087
:1045500083F8340000BF2046D9E70246002300BF9D
:1045600092F83400012801D102207047012082F81E
:10457000340000BF92F83500012824D107291FD24A
:10458000DFE801F004070A0D101316000020D063C5
:1045900018E00020106415E00020506412E00020B4
:1045A00090640FE00020D0640CE00020106509E06A
:1045B0000020D063106450649064D064106501E002
:1045C000012300BF00E0012300BF002082F8340077
:1045D00000BF1846C9E7014691F83500704701460B
:1045E000486D7047010080004006002010B5046847
:1045F00063608468402C04D10468A2600468E160B0
:1046000003E00468A1600468E26010BD2DE9F04792
:1046100004460E4617461D46DDF820804FF000097F
:10462000A068802804D1400060654FF0010929E0AE
:1046300000BF94F83400012802D10220BDE8F087C1
:10464000012084F8340000BF94F83500012817D108
:10465000022084F835002068006840F4802021683A
:1046600008602068056143463A4631462046FFF718
:10467000BDFF2068006840F001002168086001E08B
:104680004FF002094846D9E72DE9F04704460E46A7
:1046900017461D46DDF820804FF00009A0688028ED
:1046A00004D1400060650120BDE8F087E06B18B1DF
:1046B000606C08B1E06C18B9402060650120F3E738
:1046C00000BF94F83400012801D10220ECE701205A
:1046D00084F8340000BF94F83500012873D102201B
:1046E00084F83500002060652068006840F4802070
:1046F000216808602068056143463A4631462046F5
:10470000FFF774FFFA49206888425DD9F9492068AB
:10471000884201D1202052E0F5494839206888427A
:1047200001D120204BE0F34960312068884201D15B
:10473000202044E0EE4918312068884201D1202031
:104740003DE0EC4918312068884201D1C01436E0C0
:10475000E74930392068884201D1C0142FE0E5498B
:1047600078312068884201D1C01428E0E049303116
:104770002068884201D1C01421E0DE493031206830
:10478000884202D14FF4001019E0D9491839206845
:10479000884202D14FF4001011E0D64990312068D0
:1047A000884202D14FF4001009E0D1494831206815
:1047B000884202D14FF4001001E04FF00060CC4974
:1047C0004C39086020E1EFE3CA49A83120688842EB
:1047D0005CD9C8492068884201D1202052E0C449F0
:1047E00048392068884201D120204BE0C14960311E
:1047F0002068884201D1202044E0BD49183120685A
:10480000884201D120203DE0BA4918312068884211
:1048100001D1C01436E0B64930392068884201D150
:10482000C0142FE0B34978312068884201D1C01408
:1048300028E0AF4930312068884201D1C01421E01E
:10484000AC4930312068884202D14FF4001019E0A1
:10485000A74918392068884202D14FF4001011E0AE
:10486000A44990312068884202D14FF4001009E039
:104870009F4948312068884202D14FF4001001E07E
:104880004FF000609A4950390860BDE099494831BD
:10489000206888425CD997492068884201D120204D
:1048A00052E0934948392068884201D120204BE0EA
:1048B000904960312068884201D1202044E08C4931
:1048C00018312068884201D120203DE08949183103
:1048D0002068884201D1C01436E08549303920680B
:1048E000884201D1C0142FE0824978312068884283
:1048F00001D1C01428E07E4930312068884201D1BE
:10490000C01421E07B4930312068884202D14FF445
:10491000001019E0764918392068884202D14FF416
:10492000001011E0734990312068884202D14FF4A1
:10493000001009E06E4948312068884202D14FF4E6
:10494000001001E04FF000606A491039C8605BE078
:1049500068492068884201D1202052E064494839E2
:104960002068884201D120204BE0624960312068F4
:10497000884201D1202044E05D49183120688842F6
:1049800001D120203DE05B4918312068884201D1E7
:10499000C01436E0564930392068884201D1C0142D
:1049A0002FE0544978312068884201D1C01428E0B2
:1049B0004F4930312068884201D1C01421E04D496F
:1049C00030312068884202D14FF4001019E0484984
:1049D00018392068884202D14FF4001011E045498F
:1049E00090312068884202D14FF4001009E040491C
:1049F00048312068884202D14FF4001001E04FF0A6
:104A000000603C49103988603949206888425CD987
:104A100038492068884201D1102052E03449483991
:104A20002068884201D110204BE032496031206873
:104A3000884201D1102044E02D4918312068884275
:104A400001D110203DE02B4918312068884201D166
:104A5000001536E0264930392068884201D100151A
:104A60002FE0244978312068884201D1001528E0E0
:104A70001F4930312068884201D1001521E01D49CD
:104A800030312068884202D14FF4801019E0184973
:104A900018392068884202D14FF4801011E015497E
:104AA00090312068884202D14FF4801009E010490B
:104AB00048312068884202D14FF4801001E04FF065
:104AC00080600B494C39086020E10A49A831206810
:104AD00088425FD907492068884201D1102055E0FB
:104AE000034948392068884206D110204EE0000072
:104AF0005864024010600240F8492068884201D1A1
:104B0000102043E0F6492068884201D110203DE0A2
:104B1000F24948392068884201D1001536E0F04951
:104B200048392068884201D100152FE0EB4918313F
:104B30002068884201D1001528E0E9491831206831
:104B4000884201D1001521E0E449303920688842CB
:104B500002D14FF4801019E0E149303920688842D1
:104B600002D14FF4801011E0DC49303120688842D6
:104B700002D14FF4801009E0D949303120688842D1
:104B800002D14FF4801001E04FF08060D4496839C1
:104B90000860BBE0D1491839206888425BD9CF4909
:104BA00060392068884201D1102050E0CC4960393A
:104BB0002068884201D1102049E0C8492068884215
:104BC00001D1102043E0C6492068884201D110205D
:104BD0003DE0C24948392068884201D1001536E0DD
:104BE000BF4948392068884201D100152FE0BB49F0
:104BF00018312068884201D1001528E0B8491831E1
:104C00002068884201D1001521E0B449303920687C
:104C1000884202D14FF4801019E0B1493039206840
:104C2000884202D14FF4801011E0AC493031206845
:104C3000884202D14FF4801009E0A9493031206840
:104C4000884202D14FF4801001E04FF08060A34908
:104C50007039C8605AE0A14960392068884201D1A2
:104C6000102050E09E4960392068884201D1102010
:104C700049E09A492068884201D1102043E09849D0
:104C80002068884201D110203DE0944948392068CD
:104C9000884201D1001536E09149483920688842A0
:104CA00001D100152FE08D4918312068884201D1CB
:104CB000001528E08A4918312068884201D1001582
:104CC00021E0864930392068884202D14FF48010B3
:104CD00019E0834930392068884202D14FF48010AE
:104CE00011E07E4930312068884202D14FF48010B3
:104CF00009E07B4930312068884202D14FF48010AE
:104D000001E04FF080607549703988607449183946
:104D1000206888425BD9714960392068884201D196
:104D2000082050E06E4960392068884201D108208F
:104D300049E06A492068884201D1082043E0684977
:104D40002068884201D108203DE064494839206844
:104D5000884201D1401536E06149483920688842CF
:104D600001D140152FE05D4918312068884201D1FA
:104D7000401528E05A4918312068884201D1401571
:104D800021E0564930392068884202D14FF4002092
:104D900019E0534930392068884202D14FF400208D
:104DA00011E04E4930312068884202D14FF4002092
:104DB00009E04B4930312068884202D14FF400208D
:104DC00001E04FF000704649643908601FE1434933
:104DD0004831206888425BD9404960392068884260
:104DE00001D1082050E03E4960392068884201D155
:104DF000082049E039492068884201D1082043E071
:104E000037492068884201D108203DE033494839BC
:104E10002068884201D1401536E031494839206880
:104E2000884201D140152FE02C4918312068884272
:104E300001D1401528E02A4918312068884201D163
:104E4000401521E0254930392068884202D14FF4CD
:104E5000002019E0224930392068884202D14FF4FD
:104E6000002011E01D4930312068884202D14FF402
:104E7000002009E01A4930312068884202D14FF4FD
:104E8000002001E04FF00070154968390860BEE06D
:104E900012491839206888425DD910496039206864
:104EA000884201D1082052E00D49603920688842CB
:104EB00001D108204BE009492068884201D108202F
:104EC00045E007492068884201D108203FE00349B6
:104ED00048392068884205D1401538E070600240AA
:104EE00070640240FA492068884201D140152EE0E2
:104EF000F8492068884201D1401528E0F449603122
:104F00002068884201D1401521E0F24948392068E3
:104F1000884202D14FF4002019E0ED491831206891
:104F2000884202D14FF4002011E0EA49183120688C
:104F3000884202D14FF4002009E0E5497831206829
:104F4000884202D14FF4002001E04FF00070E149A7
:104F50008839C8605BE0DF4978392068884201D130
:104F6000082051E0DA4918392068884201D1082028
:104F70004AE0D84918392068884201D1082043E026
:104F8000D34948312068884201D108203CE0D1490A
:104F900060392068884201D1401535E0CC4920684D
:104FA000884202D140152FE04EE3CA49206888426A
:104FB00001D1401528E0C64960312068884201D1FE
:104FC000401521E0C34948392068884202D14FF496
:104FD000002019E0BE4918312068884202D14FF400
:104FE000002011E0BB4918312068884202D14FF4FB
:104FF000002009E0B64978312068884202D14FF498
:10500000002001E04FF00070B24988398860B04953
:105010003031206888425BD9AE49783920688842AF
:1050200001D1AD4850E0AA4918392068884201D121
:10503000A94849E0A74918392068884201D1A64803
:1050400042E0A34948312068884201D1A2483BE0B0
:10505000A04960392068884201D1801534E09C491C
:105060002068884201D180152EE09A492068884244
:1050700001D1801528E0964960312068884201D12D
:10508000801521E0934948392068884202D14FF4C5
:10509000802019E08E4918312068884202D14FF4EF
:1050A000802011E08B4918312068884202D14FF4EA
:1050B000802009E0864978312068884202D14FF487
:1050C000802001E04FF0807081491C39086020E1A8
:1050D00080493031206888425BD97E497839206820
:1050E000884201D17C4850E07949183920688842CB
:1050F00001D1794849E0774918392068884201D1BF
:10510000754842E0724948312068884201D17248AE
:105110003BE0704960392068884201D1801534E055
:105120006B492068884201D180152EE069492068CA
:10513000884201D1801528E06549603120688842A5
:1051400001D1801521E0634948392068884202D1A5
:105150004FF4802019E05E4918312068884202D15E
:105160004FF4802011E05B4918312068884202D159
:105170004FF4802009E0564978312068884202D1F6
:105180004FF4802001E04FF08070514920390860D1
:10519000BFE050493039206888425BD94D497839A1
:1051A0002068884201D14C4850E0494918392068AC
:1051B000884201D1484849E0464918392068884268
:1051C00001D1454842E0424948312068884201D136
:1051D00041483BE03F4960392068884201D1801551
:1051E00034E03B492068884201D180152EE03949DE
:1051F0002068884201D1801528E035496031206857
:10520000884201D1801521E032494839206888421E
:1052100002D14FF4802019E02D49183120688842CE
:1052200002D14FF4802011E02A49183120688842C9
:1052300002D14FF4802009E0254978312068884266
:1052400002D14FF4802001E04FF08070214988396D
:10525000C8605EE01F4978392068884201D11E4845
:1052600054E01B4918392068884201D11A484DE0A2
:10527000184918392068884201D1174846E0144976
:1052800048312068884201D113483FE01149603914
:105290002068884201D1801538E00D492068884295
:1052A00001D1801532E00B492068884201D1801578
:1052B0002CE0074960312068884201D1801525E043
:1052C000044948392068884208D14FF480201DE005
:1052D000286402408860024004008000E44920689D
:1052E000884202D14FF4802010E0E24920688842D1
:1052F00002D14FF4802009E0DD4960312068884206
:1053000002D14FF4802001E04FF08070D949A039DC
:105310008860D7491831206888425BD9D5499039CF
:105320002068884201D1D44850E0D1493039206802
:10533000884201D1D04849E0CE49303920688842BE
:1053400001D1CD4842E0CA4930312068884201D1BC
:10535000C9483BE0C74978392068884201D14020DC
:1053600034E0C34918392068884201D140202DE03B
:10537000C04918392068884201D1402026E0BC4944
:1053800048312068884201D140201FE0B949603986
:105390002068884202D14FF4803017E0B449206879
:1053A000884202D14FF4803010E0B2492068884230
:1053B00002D14FF4803009E0AD4960312068884265
:1053C00002D14FF4803001E04FF48000A849343915
:1053D00008601CE1A7491831206888425BD9A549BB
:1053E00090392068884201D1A34850E0A049303963
:1053F0002068884201D1A04849E09E4930392068A0
:10540000884201D19C4842E0994930312068884265
:1054100001D199483BE0974978392068884201D109
:10542000402034E0924918392068884201D1402058
:105430002DE0904918392068884201D1402026E0AB
:105440008B4948312068884201D140201FE08949BA
:1054500060392068884202D14FF4803017E08449D7
:105460002068884202D14FF4803010E081492068E2
:10547000884202D14FF4803009E07D4960312068D4
:10548000884202D14FF4803001E04FF48000784927
:1054900038390860BBE077494839206888425BD9D1
:1054A000744990392068884201D1734850E07049AE
:1054B00030392068884201D16F4849E06D49303960
:1054C0002068884201D16C4842E069493031206847
:1054D000884201D168483BE06649783920688842B3
:1054E00001D1402034E0624918392068884201D156
:1054F00040202DE05F4918392068884201D14020C2
:1055000026E05B4948312068884201D140201FE0F5
:10551000584960392068884202D14FF4803017E042
:1055200053492068884202D14FF4803010E051493D
:105530002068884202D14FF4803009E04C49603144
:105540002068884202D14FF4803001E04FF480009F
:105550004849A039C8605AE04649903920688842D5
:1055600001D1454850E0424930392068884201D194
:10557000414849E03F4930392068884201D13E48DE
:1055800042E03B4930312068884201D13A483BE053
:10559000384978392068884201D1402034E03449C4
:1055A00018392068884201D140202DE0314918394E
:1055B0002068884201D1402026E02D4948312068EA
:1055C000884201D140201FE02A4960392068884282
:1055D00002D14FF4803017E025492068884202D17B
:1055E0004FF4803010E023492068884202D14FF404
:1055F000803009E01E4960312068884202D14FF4B2
:10560000803001E04FF480001A49A039886020689A
:10561000006840F01600216808602068406940F08A
:10562000800021684861206C08B9A06C28B120680E
:10563000006840F00800216808602068006840F0B9
:1056400001002168086006E000BF002084F83400F3
:1056500000BF4FF002094846FFF726B8034612B9CB
:105660001868C16001E018680161002070470000FF
:1056700040640240A060024001008000F8B502468C
:105680000B460025002400200021E1E0012606FA57
:1056900001F51E6806EA0504AC4273D15E68022E6D
:1056A00002D05E68122E13D1CF0802F1200656F800
:1056B00027004E07F70E0F26BE40B0434F07FF0EE0
:1056C0001E69BE403043CF0802F1200646F827008D
:1056D00010684F000326BE40B0431E7906F0030653
:1056E0004F00BE40304310605E68012E08D05E68F7
:1056F000022E05D05E68112E02D05E68122E13D1E4
:1057000090684F000326BE40B0434F00DE68BE40A5
:1057100030439060506801268E40B0431E79C6F336
:1057200000168E4030435060D0684F000326BE40C4
:10573000B0434F009E68BE403043D0605E6806F0C4
:105740008056B6F1805FA8D100BF00260096B04E0B
:10575000366846F48046AE4F3E603E46366806F4F4
:105760008046009600BF00BFAA4E8F0856F827005B
:105770008E07370F0F26BE40B043A74EB24202D16C
:10578000002629E063E0A54EB24201D1012623E0C4
:10579000A34EB24201D102261EE0A24EB24201D176
:1057A000032619E0A04EB24201D1042614E09F4E18
:1057B000B24201D105260FE09D4EB24201D106262C
:1057C0000AE09C4EB24201D1072605E09A4EB24251
:1057D00001D1082600E009268F073F0FBE40304365
:1057E0008C4E8F0846F82700944E3068A0435E68C0
:1057F00006F48036B6F5803F00D120438F4E3060EE
:10580000361D3068A0435E6806F40036B6F5003FEA
:1058100000D12043894E361D3060361D3068A043CC
:105820005E6806F48016B6F5801F00D12043834ED3
:1058300008363060361D3068A0435E6806F40016F6
:10584000B6F5001F00D120437C4E0C363060491C59
:105850001029FFF41BAFF8BDF0B50C46002500225F
:105860000023002197E0012606FA01F504EA05026B
:10587000AA427DD106684FEA410C032707FA0CF7CC
:10588000BE430660CF0800F1200656F827604F0798
:105890004FEAD76C0F2707FA0CF7BE434FEAD10C3B
:1058A00000F1200747F82C6086684FEA410C032777
:1058B00007FA0CF7BE438660476801268E40B7435F
:1058C0004760C6684FEA410C032707FA0CF7BE434E
:1058D000C660504E8F0856F827308E07370F0F26B8
:1058E000BE4033404C4EB04201D1002628E04B4E22
:1058F000B04201D1012623E0494EB04201D1022637
:105900001EE0484EB04201D1032619E0464EB04297
:1059100001D1042614E0454EB04201D105260FE026
:10592000434EB04201D106260AE0424EB04201D1B8
:10593000072605E0404EB04201D1082600E00926C6
:105940008F073F0FBE409E4224D18E07370F0F2690
:1059500006FA07F32F4E8F0856F827609E432D4F07
:105960004FEA910C47F82C60344E3668964300E0BD
:1059700010E0324F3E603E1D366896433F1D3E604C
:105980003E1D366896433F1D3E603E1D3668964379
:105990003F1D3E60491C1029FFF465AFF0BD024673
:1059A00013690B400BB1012000E0002070470AB1E1
:1059B000816101E00B048361704742694A404261A2
:1059C000704708B502464FF48030009000980843B5
:1059D00000900098D061D1610098D061D0690090AA
:1059E000D06900F4803008B1002008BD0120FCE738
:1059F000704710B50446114814300068204028B1A3
:105A00000E48143004602046FAF782FC10BD0000F6
:105A100044380240083801400000024000040240BF
:105A200000080240000C0240001002400014024036
:105A300000180240001C024000200240003C0140CF
:105A4000704770B50446002600250CB9012070BDD2
:105A500094F83D0028B9002084F83C002046FFF768
:105A6000EFFF242084F83D002068006820F001004A
:105A70002168086003F0ABFD0546F748B5FBF0F67A
:105A800020684660F5496068884201D8701C07E0CC
:105A90004FF4967070434FF47A71B0FBF1F0401CF4
:105AA00021680862ED49606888420ED8606840004D
:105AB000B5FBF0F0C0F30B00042801D204202DE068
:105AC00060684000B5FBF0F028E0A06828B9606885
:105AD00000EB4000B5FBF0F008E0606800EBC001AF
