:020000040200F8
:10000000608600209100000200F002F800F02EF857
:100010000AA090E8000C82448344AAF10107DA4563
:1000200001D100F023F8AFF2090EBAE80F0013F087
:10003000010F18BFFB1A43F001031847F00200003C
:10004000000300000023002400250026103A28BFEA
:1000500078C1FBD8520728BF30C148BF0B6070473A
:100060001FB500F085F81FBD10B510BD00F025F8D4
:100070001146FFF7F5FF00F071F800F043F803B404
:10008000FFF7F2FF03BC00F047F8000002DF704703
:10009000034A104703480449044A054B70470000CF
:1000A000090000026080002060860020608200203D
:1000B00060820020704770477047754600F032F844
:1000C000AE4605006946534620F00700854618B045
:1000D00020B5FFF7DFFFBDE820404FF000064FF0EE
:1000E00000074FF000084FF0000B21F00701AC466D
:1000F000ACE8C009ACE8C009ACE8C009ACE8C0098C
:100100008D46704710B50446AFF300802046BDE829
:100110001040FFF7B4BF000001491820ABBEFEE756
:100120002600020000487047008000207047000051
:1001300000B589B000BF084B0FCBCDE90723CDE94F
:10014000050105A80FC8FFF7A1FFCDE90323CDE9FD
:10015000010109B000BD00008C0100027FB504461A
:100160000D46FFF7E5FF8DE80F00002004B070BDDD
:100170004FF04070E1EE100A70470000810000006F
:1001800000000000000000000000000082000000ED
:1001900000000000000000000000000083000000DC
:1001A00000000000000000000000000091000000BE
:1001B00000000000000000000000000094000000AB
:1001C000000000000000000000000000950000009A
:1001D0000000000000000000000000009700000088
:1001E0000000000000000000000000009600000079
:1001F0000000000000000000000000009800000067
:10020000000000000000000000000000840000006A
:100210000000000000000000000000008500000059
:100220000000000000000000000000008600000048
:100230000000000000000000000000008700000037
:100240000000000000000000000000008800000026
:100250000000000000000000000000008900000015
:100260000000000000000000000000008A00000004
:100270000000000000000000000000008B000000F3
:100280000000000000000000000000008C000000E2
:100290000000000000000000000000008D000000D1
:1002A0000000000000000000000000008E000000C0
:1002B0000000000000000000000000008F000000AF
:1002C000000000000000000000000000900000009E
:1002D000000000000000000000000000920000008C
:1002E000000000000000000000000000930000007B
:1002F0000000000000000000000000009A00000064
:100300000000000000000000000000009900000054
:1003100000000000000000000000000000000800D5
:100320000000000000000000000000003C0300028C
:0C03300000800020600600004400000275
:0400000502000009EC
:00000001FF
